{
  "_format": "hh-sol-artifact-1",
  "contractName": "Transactions",
  "sourceName": "contracts/Transactions.sol",
  "abi": [
    {
      "anonymous": false,
      "inputs": [
        {
          "indexed": false,
          "internalType": "address",
          "name": "from",
          "type": "address"
        },
        {
          "indexed": false,
          "internalType": "address",
          "name": "to",
          "type": "address"
        },
        {
          "indexed": false,
          "internalType": "uint256",
          "name": "amount",
          "type": "uint256"
        },
        {
          "indexed": false,
          "internalType": "string",
          "name": "message",
          "type": "string"
        },
        {
          "indexed": false,
          "internalType": "uint256",
          "name": "timestamp",
          "type": "uint256"
        },
        {
          "indexed": false,
          "internalType": "string",
          "name": "keyword",
          "type": "string"
        }
      ],
      "name": "Transfer",
      "type": "event"
    },
    {
      "inputs": [
        {
          "internalType": "address payable",
          "name": "receiver",
          "type": "address"
        },
        {
          "internalType": "uint256",
          "name": "amount",
          "type": "uint256"
        },
        {
          "internalType": "string",
          "name": "message",
          "type": "string"
        },
        {
          "internalType": "string",
          "name": "keyword",
          "type": "string"
        }
      ],
      "name": "addToBlockchain",
      "outputs": [],
      "stateMutability": "nonpayable",
      "type": "function"
    },
    {
      "inputs": [],
      "name": "getAllTransactions",
      "outputs": [
        {
          "components": [
            {
              "internalType": "address",
              "name": "sender",
              "type": "address"
            },
            {
              "internalType": "address",
              "name": "receiver",
              "type": "address"
            },
            {
              "internalType": "uint256",
              "name": "amount",
              "type": "uint256"
            },
            {
              "internalType": "string",
              "name": "message",
              "type": "string"
            },
            {
              "internalType": "uint256",
              "name": "timestamp",
              "type": "uint256"
            },
            {
              "internalType": "string",
              "name": "keyword",
              "type": "string"
            }
          ],
          "internalType": "struct Transactions.TransferStruct[]",
          "name": "",
          "type": "tuple[]"
        }
      ],
      "stateMutability": "view",
      "type": "function"
    },
    {
      "inputs": [],
      "name": "getTransactionCount",
      "outputs": [
        {
          "internalType": "uint256",
          "name": "",
          "type": "uint256"
        }
      ],
      "stateMutability": "view",
      "type": "function"
    },
    {
      "inputs": [],
      "name": "transactionCount",
      "outputs": [
        {
          "internalType": "uint256",
          "name": "",
          "type": "uint256"
        }
      ],
      "stateMutability": "view",
      "type": "function"
    },
    {
      "inputs": [
        {
          "internalType": "uint256",
          "name": "",
          "type": "uint256"
        }
      ],
      "name": "transactions",
      "outputs": [
        {
          "internalType": "address",
          "name": "sender",
          "type": "address"
        },
        {
          "internalType": "address",
          "name": "receiver",
          "type": "address"
        },
        {
          "internalType": "uint256",
          "name": "amount",
          "type": "uint256"
        },
        {
          "internalType": "string",
          "name": "message",
          "type": "string"
        },
        {
          "internalType": "uint256",
          "name": "timestamp",
          "type": "uint256"
        },
        {
          "internalType": "string",
          "name": "keyword",
          "type": "string"
        }
      ],
      "stateMutability": "view",
      "type": "function"
    }
  ],
  "bytecode": "0x608060405234801561001057600080fd5b50610eb0806100206000396000f3fe608060405234801561001057600080fd5b50600436106100575760003560e01c806327506f531461005c5780632e7700f01461007a5780639ace38c214610098578063b77bf600146100cd578063cc2d7ead146100eb575b600080fd5b610064610107565b6040516100719190610b5c565b60405180910390f35b61008261034a565b60405161008f9190610b7e565b60405180910390f35b6100b260048036038101906100ad919061087f565b610353565b6040516100c496959493929190610aed565b60405180910390f35b6100d56104ef565b6040516100e29190610b7e565b60405180910390f35b610105600480360381019061010091906107ec565b6104f5565b005b60606001805480602002602001604051908101604052809291908181526020016000905b8282101561034157838290600052602060002090600602016040518060c00160405290816000820160009054906101000a900473ffffffffffffffffffffffffffffffffffffffff1673ffffffffffffffffffffffffffffffffffffffff1673ffffffffffffffffffffffffffffffffffffffff1681526020016001820160009054906101000a900473ffffffffffffffffffffffffffffffffffffffff1673ffffffffffffffffffffffffffffffffffffffff1673ffffffffffffffffffffffffffffffffffffffff1681526020016002820154815260200160038201805461021490610d7c565b80601f016020809104026020016040519081016040528092919081815260200182805461024090610d7c565b801561028d5780601f106102625761010080835404028352916020019161028d565b820191906000526020600020905b81548152906001019060200180831161027057829003601f168201915b50505050508152602001600482015481526020016005820180546102b090610d7c565b80601f01602080910402602001604051908101604052809291908181526020018280546102dc90610d7c565b80156103295780601f106102fe57610100808354040283529160200191610329565b820191906000526020600020905b81548152906001019060200180831161030c57829003601f168201915b5050505050815250508152602001906001019061012b565b50505050905090565b60008054905090565b6001818154811061036357600080fd5b90600052602060002090600602016000915090508060000160009054906101000a900473ffffffffffffffffffffffffffffffffffffffff16908060010160009054906101000a900473ffffffffffffffffffffffffffffffffffffffff16908060020154908060030180546103d890610d7c565b80601f016020809104026020016040519081016040528092919081815260200182805461040490610d7c565b80156104515780601f1061042657610100808354040283529160200191610451565b820191906000526020600020905b81548152906001019060200180831161043457829003601f168201915b50505050509080600401549080600501805461046c90610d7c565b80601f016020809104026020016040519081016040528092919081815260200182805461049890610d7c565b80156104e55780601f106104ba576101008083540402835291602001916104e5565b820191906000526020600020905b8154815290600101906020018083116104c857829003601f168201915b5050505050905086565b60005481565b60016000808282546105079190610c60565b9250508190555060016040518060c001604052803373ffffffffffffffffffffffffffffffffffffffff1681526020018673ffffffffffffffffffffffffffffffffffffffff16815260200185815260200184815260200142815260200183815250908060018154018082558091505060019003906000526020600020906006020160009091909190915060008201518160000160006101000a81548173ffffffffffffffffffffffffffffffffffffffff021916908373ffffffffffffffffffffffffffffffffffffffff16021790555060208201518160010160006101000a81548173ffffffffffffffffffffffffffffffffffffffff021916908373ffffffffffffffffffffffffffffffffffffffff1602179055506040820151816002015560608201518160030190805190602001906106469291906106b7565b506080820151816004015560a082015181600501908051906020019061066d9291906106b7565b5050507f416cfa4330a4565f45c2fd2dd4826a83a37443aba2ce6f79477c7355afac35fa3385858542866040516106a996959493929190610a7e565b60405180910390a150505050565b8280546106c390610d7c565b90600052602060002090601f0160209004810192826106e5576000855561072c565b82601f106106fe57805160ff191683800117855561072c565b8280016001018555821561072c579182015b8281111561072b578251825591602001919060010190610710565b5b509050610739919061073d565b5090565b5b8082111561075657600081600090555060010161073e565b5090565b600061076d61076884610bca565b610b99565b90508281526020810184848401111561078557600080fd5b610790848285610d3a565b509392505050565b6000813590506107a781610e4c565b92915050565b600082601f8301126107be57600080fd5b81356107ce84826020860161075a565b91505092915050565b6000813590506107e681610e63565b92915050565b6000806000806080858703121561080257600080fd5b600061081087828801610798565b9450506020610821878288016107d7565b935050604085013567ffffffffffffffff81111561083e57600080fd5b61084a878288016107ad565b925050606085013567ffffffffffffffff81111561086757600080fd5b610873878288016107ad565b91505092959194509250565b60006020828403121561089157600080fd5b600061089f848285016107d7565b91505092915050565b60006108b483836109d0565b905092915050565b6108c581610d04565b82525050565b6108d481610cb6565b82525050565b6108e381610cb6565b82525050565b60006108f482610c0a565b6108fe8185610c2d565b93508360208202850161091085610bfa565b8060005b8581101561094c578484038952815161092d85826108a8565b945061093883610c20565b925060208a01995050600181019050610914565b50829750879550505050505092915050565b600061096982610c15565b6109738185610c3e565b9350610983818560208601610d49565b61098c81610e3b565b840191505092915050565b60006109a282610c15565b6109ac8185610c4f565b93506109bc818560208601610d49565b6109c581610e3b565b840191505092915050565b600060c0830160008301516109e860008601826108cb565b5060208301516109fb60208601826108cb565b506040830151610a0e6040860182610a60565b5060608301518482036060860152610a26828261095e565b9150506080830151610a3b6080860182610a60565b5060a083015184820360a0860152610a53828261095e565b9150508091505092915050565b610a6981610cfa565b82525050565b610a7881610cfa565b82525050565b600060c082019050610a9360008301896108da565b610aa060208301886108bc565b610aad6040830187610a6f565b8181036060830152610abf8186610997565b9050610ace6080830185610a6f565b81810360a0830152610ae08184610997565b9050979650505050505050565b600060c082019050610b0260008301896108da565b610b0f60208301886108da565b610b1c6040830187610a6f565b8181036060830152610b2e8186610997565b9050610b3d6080830185610a6f565b81810360a0830152610b4f8184610997565b9050979650505050505050565b60006020820190508181036000830152610b7681846108e9565b905092915050565b6000602082019050610b936000830184610a6f565b92915050565b6000604051905081810181811067ffffffffffffffff82111715610bc057610bbf610e0c565b5b8060405250919050565b600067ffffffffffffffff821115610be557610be4610e0c565b5b601f19601f8301169050602081019050919050565b6000819050602082019050919050565b600081519050919050565b600081519050919050565b6000602082019050919050565b600082825260208201905092915050565b600082825260208201905092915050565b600082825260208201905092915050565b6000610c6b82610cfa565b9150610c7683610cfa565b9250827fffffffffffffffffffffffffffffffffffffffffffffffffffffffffffffffff03821115610cab57610caa610dae565b5b828201905092915050565b6000610cc182610cda565b9050919050565b6000610cd382610cda565b9050919050565b600073ffffffffffffffffffffffffffffffffffffffff82169050919050565b6000819050919050565b6000610d0f82610d16565b9050919050565b6000610d2182610d28565b9050919050565b6000610d3382610cda565b9050919050565b82818337600083830152505050565b60005b83811015610d67578082015181840152602081019050610d4c565b83811115610d76576000848401525b50505050565b60006002820490506001821680610d9457607f821691505b60208210811415610da857610da7610ddd565b5b50919050565b7f4e487b7100000000000000000000000000000000000000000000000000000000600052601160045260246000fd5b7f4e487b7100000000000000000000000000000000000000000000000000000000600052602260045260246000fd5b7f4e487b7100000000000000000000000000000000000000000000000000000000600052604160045260246000fd5b6000601f19601f8301169050919050565b610e5581610cc8565b8114610e6057600080fd5b50565b610e6c81610cfa565b8114610e7757600080fd5b5056fea26469706673582212205dc5f0091196f9ce79c8a374451b7e02b2283ea135bee541897e79f4414c7cf764736f6c63430008000033",
  "linkReferences": {},
  "deployedLinkReferences": {}
}